:020000040001F9
:10800000C83E0020B1810100CB810100CD8101007B
:108010000000000000000000000000000000000060
:10802000000000000000000000000000CF810100FF
:108030000000000000000000D1810100D381010098
:10804000D5810100D5810100D9920100D5810100BF
:10805000D58101000000000005900100D5810100DC
:10806000D5810100D5810100D5810100D5810100B4
:10807000D5810100D5810100D5810100D5810100A4
:10808000D58101005D910100D5810100D5810100FC
:108090000D920100D581010061920100D58101009E
:1080A000D5810100D5810100000000000000000022
:1080B00000000000000000000000000000000000C0
:1080C00000F002F800F038F80CA030C80838241886
:1080D0002D18A246671EAB4654465D46AC4201D100
:1080E00000F02AF87E460F3E0FCCB64601263342FA
:1080F00000D0FB1AA246AB46334318479C3600001B
:10810000BC3600000023002400250026103A01D3CD
:1081100078C1FBD8520700D330C100D50B6070473F
:108120001FB50098019900F06EFE00F031FC1FBDF4
:1081300010B500F099FC10BD00F024FE1146FFF7C9
:10814000EFFF02F065FD00F0A4FE03B4FFF7F0FFBF
:1081500003BC01F00CF90000401E00BF00BF00BFCF
:1081600000BF00BF00BF00BF00BF00BF00BF00BF17
:1081700000BFF1D17047000070B505460C461646A9
:1081800002E00FCC0FC5103E102EFAD2082E02D3FB
:1081900003CC03C5083E042E07D301CC01C5361F0E
:1081A00003E021782970641C6D1C761EF9D270BD25
:1081B00003210C4802680A4302600B4802680A4324
:1081C00002600A4880470A480047FEE7FEE7FEE7EC
:1081D000FEE7FEE7FEE7000006480749074A084BAE
:1081E00070470000240500405405004085920100BE
:1081F000C1800100C82E0020C83E0020C8360020E3
:10820000C8360020704700000FB4054910B503AA16
:10821000029800F0BFF910BC08BC04B01847000079
:10822000C02D002070B50446C068810713D08006B9
:1082300001D5A56A04E0A169606840182169451A62
:10824000204600F05DFB002206462946204600F04D
:10825000ADFA304670BD002070BD70B5002802D068
:10826000FFF7E0FF70BD0025074C6E1E08E02046BA
:10827000FFF7D8FF002800D03546206D4408640081
:10828000002CF4D1284670BD6C2D0020034610B59B
:108290000B439B070FD1042A0DD308C810C9121F26
:1082A000A342F8D018BA21BA884201D9012010BDE2
:1082B0000020C04310BD002A03D0D30703D0521CB6
:1082C00007E0002010BD03780C78401C491C1B1BE4
:1082D00007D103780C78401C491C1B1B01D1921E4E
:1082E000F1D1184610BDF8B5042A2CD3830712D05B
:1082F0000B78491C0370401C521E83070BD00B786F
:10830000491C0370401C521E830704D00B78491C83
:108310000370401C521E8B079B0F05D0C91ADF004B
:108320002023DE1B08C90AE0FFF726FFF8BD1D4623
:1083300008C9FD401C46B4402C4310C0121F042A3B
:10834000F5D2F308C91A521EF0D40B78491C0370F9
:10835000401C521EEAD40B78491C0370401C012AB1
:10836000E4D409780170F8BD01E004C0091F0429B4
:10837000FBD28B0701D50280801CC90700D0027098
:10838000704700290BD0C30702D00270401C491E61
:10839000022904D3830702D50280801C891EE3E7EB
:1083A0000022EEE70022DFE7024670B50A4392079B
:1083B0002AD11E4DEE0104C808C9541B9443344011
:1083C00017D0D0B2D9B2401A2106014310D190B2D1
:1083D00099B2401A210401430AD110021902000A7D
:1083E000090A401A2102014302D1100E190E401A47
:1083F00070BD9A42DFD010BA19BA884201D9012063
:1084000070BD0020C04370BD02780B78401C491C31
:10841000002A09D09A4207D102780B78401C491CE7
:10842000002A01D09A42EFD0D01A70BD010101019B
:10843000002203098B422CD3030A8B4211D3002361
:108440009C464EE003460B433CD4002243088B423B
:1084500031D303098B421CD3030A8B4201D39446C8
:108460003FE0C3098B4201D3CB01C01A52418309BB
:108470008B4201D38B01C01A524143098B4201D375
:108480004B01C01A524103098B4201D30B01C01AA0
:108490005241C3088B4201D3CB00C01A524183081A
:1084A0008B4201D38B00C01A524143088B4201D347
:1084B0004B00C01A5241411A00D2014652411046A7
:1084C00070475DE0CA0F00D04942031000D340421C
:1084D000534000229C4603098B422DD3030A8B4252
:1084E00012D3FC22890112BA030A8B420CD38901F0
:1084F00092118B4208D3890192118B4204D38901D6
:108500003AD0921100E08909C3098B4201D3CB0113
:10851000C01A524183098B4201D38B01C01A5241C8
:1085200043098B4201D34B01C01A524103098B42CC
:1085300001D30B01C01A5241C3088B4201D3CB00B7
:10854000C01A524183088B4201D38B00C01A52419A
:10855000D9D243088B4201D34B00C01A5241411A71
:1085600000D20146634652415B10104601D340429F
:10857000002B00D54942704763465B1000D3404250
:1085800001B50020C046C04602BD70477047704725
:1085900070470000084B70B50D467B4400F0F3FABD
:1085A0000446284600F002FB002802D00020C04309
:1085B00070BD204670BD0000E7220000F8B50546FA
:1085C0000C46C8680521C904884301218905084370
:1085D000E060800602D5204600F0B8F97149E068F5
:1085E0000140022903D0204600F05AF9BCE00521E1
:1085F000012249030140D20391420FD1C00306D5A5
:108600006168E06A884200D80846606006E0206938
:10861000E0626060606900F0ABFEA061A1680022CA
:10862000EEB200290EDAE06883050BD4C943A160DD
:108630000921226049030843E0606068411C6160D1
:108640000670ACE0E068012149030843E0600020C7
:1086500020602069002831D1606900F08BFE01257F
:1086600027462437ED02002816D0A0898005800F08
:1086700008D0E06900F02AFA0028206102D0E06802
:10868000284318E001202761E061E0680321090226
:108690008843012189020DE0E06900F017FA002803
:1086A0002061EFD0E0682843E0608105890F03D1A5
:1086B000FF2101310843E06020696060E2683A4FC1
:1086C0002569D0051FD56168E06A884200D8084650
:1086D000411B05D02246284600F0ECF8002843D183
:1086E000E068010204D5E56200206560A06053E007
:1086F000691CE1626160E169491E3843A160E06084
:1087000030462E70F8BD100201D53A4009E060688D
:10871000411C61600670E06838430A2EE06006D0B4
:108720000022E16A6068814203D90B4602E001221F
:10873000F7E70346A7895B1B7F0504D4E7699F42DF
:1087400001DD002A1ED0814200D801460F1A002008
:10875000E5626560002BA06009DD224619462846C7
:1087600000F0A8F8002802D00020C043F8BD002F78
:1087700008D0A069E5626560C01BA061E0681021B7
:108780000843E060E068000209D56168A069E5621D
:10879000491B40186560A0610120C043F8BD304608
:1087A000F8BD00008210000000000100F8B504468A
:1087B00016460D464769007B800730D0384600F0EA
:1087C000D9FD00282BD132461026002A25D0012AB7
:1087D00002D0022A23D104E0204600F0EBF945192B
:1087E0001BE0384600F0C4FDE16831430028E16039
:1087F00004DA204600F054F80120F8BDC9030BD577
:108800006268E16A914200D81146A269891822691A
:10881000891A814200DD08462D18002D01DA022058
:10882000F8BDE16A6068E268814206D29103E062C5
:1088300003D5012149048A433243A669AE4211DCC3
:10884000E16A814201D90B4600E003469F19236982
:10885000FF1AAF4206DD814201D90F4600E007460C
:108860009F4206D1202002430020A060A562206024
:108870000DE0AD1BE669AE1B8142A66000D908463B
:10888000C01A281A206058196060202082430348CB
:1088900002400020E26040342072F8BDBFCFD7FF15
:1088A000C1688022114392039143C160002181601D
:1088B00001607047F7B514460E463348D5685769CE
:1088C000054209D03846A16900F076FD002811DB89
:1088D0002D48C0430540E5602B4632463846009996
:1088E00000F06CFD4200A1695208B21A89180028F4
:1088F000A16104D02046FFF7D3FF0020C043FEBD96
:1089000070B504460569C06A6168884200D80846A7
:10891000E1680522D2049143E160C90314D5A8425D
:1089200009D02246411B2846FFF7C4FF002802D089
:108930000020C04370BDE56200206560A060E06873
:10894000012109048843E060002070BD10B5044691
:10895000C06820218843E060A16AA06988420ED0E7
:108960002046FFF7CDFFE06803210903884310216B
:108970000843E060A06AA0612069E062606003498A
:10898000E0680840E06010BD10000200BFBFFFFFBC
:1089900010B543485421FFF705FD42485421FFF725
:1089A00001FD41485421FFF7FDFC40483C493D4B47
:1089B000404A01603E4803603B4810605A1C0A650B
:1089C000411C1965012101653C48354A3AA17844AA
:1089D00000F038F9002804D1384878440C3800F009
:1089E000CBF938482F4A36A1784400F02BF90028FB
:1089F00004D1344878440C3800F0BEF932482A4A91
:108A00002FA1784400F01EF9002804D12E487844A4
:108A10000C3800F0B1F940232148DC000021224647
:108A200000F0EAF8002804D0244878445C3800F0CC
:108A3000A3F91C4822464023002100F0DDF800285D
:108A400004D0204878445C3800F096F91648224655
:108A50001023002100F0D0F8002804D01A487844F0
:108A60005C3800F089F910BD0F4870B5006D4408FE
:108A70000B48640000F05AF90A4800F057F90A4818
:108A800000F054F909E0206D450820466D0000F023
:108A90004DF9204600F04BF82C46002CF3D170BD68
:108AA0006C2D0020C02D0020142E00207C210020E1
:108AB000802100208421002072000000722D00001F
:108AC000770000005E2D00004B2D000070B50646BB
:108AD00000F078F9056830460B30C408E400B44271
:108AE00001D8002070BD68682A46002818D00168A7
:108AF000A14211D30B46214608318B4208D343686B
:108B000001194B6003681B1B0B605160046001E09E
:108B100041685160001D70BD024640680028E6D1E2
:108B20002146284600F05AF90028DCD170BD70B506
:108B30000446051F00F046F90068002C1AD044686E
:108B400001E020466468002C01D0AC42F9D30168F2
:108B50000A18AA4204D12A6805468918016000E073
:108B6000456028684119A14205D1616869602168A2
:108B70004018286070BD6C6070BD000001694A1C1F
:108B800002610878704700B58FB00291002105910D
:108B9000054901937944039111460490684600F019
:108BA00066F90FB000BD0000E5FFFFFFC06880213F
:108BB0000840704710B50146C268900703D0900680
:108BC00007D5886A0AE000F001F901210160881EDA
:108BD00010BD8B694868C0180B69C01A40310B7A08
:108BE000002B02D0497A401A10BD1103FCD5002891
:108BF000FADD401E10BD000070B5C468A50713D093
:108C0000650211D4D51FF93D0AD0FF3D6D1E07D076
:108C1000FF3DFF3D022D07D101462431012305E030
:108C2000074E5D1EB54201D3012070BD0161C361D5
:108C300041600F2109028C431443C460002070BDC1
:108C4000FFFFFF00F7B516460C46104600F06EF821
:108C50002078611C61280AD0722802D0772839D187
:108C600002E00125002404E00225042401E02D4D4A
:108C700008240222032301270878491C2B2806D048
:108C8000622807D02039C87F742807D008E01D4328
:108C90001443F1E7042005433C43EDE7102004436F
:108CA0000098214600F06EFB411C13D00021316179
:108CB00071600121F5604902F1617061200704D5FE
:108CC000304602220021FFF771FD306D38433065D8
:108CD0003046FEBD0020FEBDF8B50D460646124CDE
:108CE000206DC10704D0410804D044086400F7E7B0
:108CF000224610E05420FFF7E9FE070010D0790863
:108D0000206D490001221143084354212065384653
:108D1000FFF748FB3A4629463046FFF793FFF8BD78
:108D20000020F8BD028000006C2D0020FEB5044636
:108D3000466900690F4F0190E56800200090A80780
:108D400007D02046FFF7DCFD304600F00EFB002880
:108D500001DA3846FEBD280502D50198FFF7E7FE87
:108D60004C212046FFF71EFB206D40084000206587
:108D70000098FEBDFFFFFFFF10B500F097F800F070
:108D80008EF810BD754600F0ABF8AE46050069469A
:108D90005346C008C000854618B020B5FFF71CFA3E
:108DA00060BC00274908B6460026C0C5C0C5C0C57E
:108DB000C0C5C0C5C0C5C0C5C0C5403D49008D4681
:108DC0007047000000487047702E00200048704730
:108DD000682E0020704770477047704738B50446CA
:108DE0000A4600206946C046C046002805D0024613
:108DF0002046009900F078F8012038BD10B5012018
:108E000000F0A6F810BDF8B5C046C04605460020E3
:108E10000C461020C0460646A819A0420DD932467D
:108E200069460020C046C046070001D100F090F816
:108E30000098A04200D00546C419FFF7C3FFF61DF5
:108E400007460560F008C0004619284600F008F8FB
:108E5000B44204D031463868A21B00F045F8F8BD92
:108E60000021016041608060704710207047F8B5B4
:108E7000064600244768806800903046F56803E0A5
:108E80000099B847641C3046A8470028F8D120460E
:108E9000F8BD0446C046C0462046FFF756F910B557
:108EA000002801D000F063FA10BD000010B50146A3
:108EB00002A000F033F8012010BD000053494752D2
:108EC000545245443A2052656469726563743A208D
:108ED00063616E2774206F70656E3A200000000099
:108EE00000487047682E002010B50346406801E036
:108EF00003464068002801D08842F9D31868C31897
:108F00008B4206D0CB1CD808C000001D411A521A53
:108F10000146081D0A60FFF70AFE10BD70B5054640
:108F20000C460A2000E06D1C00F056FA002D06D019
:108F300028780028F7D102E0641C00F04DFA002CDC
:108F400002D020780028F7D10A2000F045FA70BD41
:108F500010B500F003F8FFF7A2FF10BD10B501280F
:108F600005D0002103A0FFF7D9FF012010BD09A102
:108F7000F8E7000053494752544D454D3A204F758C
:108F800074206F662068656170206D656D6F727901
:108F9000000000003A2048656170206D656D6F72B9
:108FA0007920636F727275707465640070B58C1887
:108FB0000578401C6B075B0F01D10378401C2A1118
:108FC00006D10278401C03E00678401C0E70491C54
:108FD0005B1EF9D12B0705D40023521E0DD40B7054
:108FE000491CFAE70378401CCB1A921C03E01D7859
:108FF0000D70491C5B1C521EF9D5A142D8D300202C
:1090000070BD0000FEB50024FF250135012726466E
:109010000194284602F046F800280AD0374901207A
:109020004968B040014204D03548002128183C432B
:1090300001602D1D7F00761CADB2042EE9D3FF2008
:109040007D3002F02FF8002807D02E480021016063
:10905000400704432C48006901902C4F200713D08F
:109060000126002526420BD02948AA0011180869BC
:109070000969C004C00E8903890FD219526890474C
:1090800076006D1C042DEDD3002C34DA00241F4F24
:10909000012638194030007A8506AD0E800900900F
:1090A000AE40284602F0F2F8002821D0284601F010
:1090B00099FA8000C0194768002F19D01549A800F7
:1090C0004018006801998003800F0E4202D00228E8
:1090D00002D00DE003280BD10099032905D1022805
:1090E0000AD00221284601F0CDFF28460099B84752
:1090F000641C052CCBD3FEBD0321F3E700630040C5
:10910000006000407C61004000050050A02A002063
:1091100000650040000700508307FF22DB0E9A40E5
:109120008907090E994000280BDA0007000F08385C
:10913000830808489B001818C36993430B43C36115
:109140007047830804489B001B1818689043084325
:109150001860704700ED00E000E400E010B506493B
:109160000020086048608860C86003494039086092
:10917000486002F0BFF910BD40110140F7B5182159
:109180004843214916464418E16A8807800F02289F
:109190000BD0A06A626A801A401E01D5226A10189C
:1091A000864202DD89072DD00646002E2AD00027F0
:1091B000A06A616A451A6D1E01D5206A4519616A67
:1091C000206A411AA94201DC616A451AB54200DBF6
:1091D0003546616AE0692A4640180199FFF783F82D
:1091E00001987F1940190190606A761B40196062EE
:1091F000606A216A884201D100206062002ED7D1C6
:109200003846FEBD0020FEBD30200020FEB5002007
:10921000C043124D02906869019068462E6901F0C2
:10922000E5FA074601F032FC0446002F08D002AAF6
:109230000199009801F0FAFA029801F071FC06E039
:10924000029801F06DFC002801D1002C02D03046BC
:1092500001F0D0F900206871FEBD0000442100201B
:1092600010B507484068002807D08047002803D081
:109270000022114600F01EFA10BD01F039FB10BDAE
:109280006821002010B501F081FB002805D00E49AF
:109290000C484860C8130D4988610D48018CC9B25B
:1092A00001290ED1818C09070BD1018D0906090F07
:1092B000042906D1808D0006000F02D10549012046
:1092C000886010BDDFFF07C000050040006C004053
:1092D000C00F00F000060040FEB5194CA068194D03
:1092E000194E002700280ED0706840070BD5A760E4
:1092F000164880690422C0B2A88069460A700871C5
:10930000A96868468847E069002806D070680006AA
:1093100003D5E761032001F06DFF606A00280ED0DD
:10932000706880050BD56762084980390868086055
:1093300002216A4611700190A96868468847FEBDFF
:1093400000210040042100200023004000250040AF
:1093500030B47446641E2578641CAB4200D21D46AE
:10936000635D5B00E31830BC184700207047FEE7E0
:10937000002070470121C903884201DD01207047A8
:109380000020704710B504460949FFF70DF8002882
:1093900008D007492046C91DFFF706F8002803D06A
:1093A000002010BD034810BD0248401C10BD000045
:1093B0004AB70100028000000020704710B5144633
:1093C0000246044B00209A4203D12246FFF7D6FE04
:1093D000201A10BD0280000010B5034901F052FAB6
:1093E0000148FEF73AFF10BDC02D00201CB506490C
:1093F0000120C8600549487003206A4610708968DA
:10940000684688471CBD0000002000400421002061
:1094100004490020487004490122CA604A60034997
:109420000860704704210020002000400025004013
:10943000F7B582B00026054616700078144600285D
:1094400005D02846039901F0C3FC060008D1A8788E
:1094500000281ED02078039F001D1F2802D90C2051
:1094600005B0F0BD684679DF0028F9D121780322E4
:10947000481C20707A5421781922481C20707A5494
:109480002078C1196846008802F074F821784018E5
:109490002070E8780223002810D02078039A411C1D
:1094A0002170135420780399471C012227700A5415
:1094B0002078EA78471C039927700A5468680028C6
:1094C00015D00021415620788C460246C01C0399D5
:1094D0001F28C4D8501C20708B5422780A23501C9B
:1094E00020708B5420786246431C23700A542889CC
:1094F000002809D028460094062202210830039B48
:1095000002F0ACF80600ABD1288A002809D0284622
:109510000094072203211030039B02F09FF80600FD
:109520009ED1288B002809D02846009415221421AA
:109530001830039B02F092F8060091D1286A0028A7
:1095400005D02246039901F0A7F8060088D1686A81
:10955000002805D02246039901F008FC060084D1BA
:109560002C20405D002806D022462846039901F0B1
:10957000DBFE0600C7D1304672E7000010B596B09A
:10958000302101A8FEF70EFF022168460171012477
:1095900084710621C17184820D48069020210DA896
:1095A000FEF700FF08A8047740201090B420119027
:1095B000002001460090074B0DAA01A800F086FA92
:1095C000002803D00022114600F074F816B010BD38
:1095D00004200020B9B00100044842680121C905F7
:1095E0000B46934383600A40C260704700050050F9
:1095F00070B50024074D05E06968E000085C01F0E3
:109600004DFC641C28788442F6D3E86800F004FA24
:1096100070BD00001C21002070B50024064D06E03E
:109620006968E000085C012101F062FC641C287894
:109630008442F5D3002070BD1C210020F8B51546EA
:109640000C460646052A01D20720F8BD01F012FD9E
:10965000002803D101F0E6FC0028F6D111490020D2
:109660004E600C7008618D6048610F4D0DE0E000A8
:1096700029688019009181786A46517000780B4AF8
:10968000694601F07BFC0028DFD12046641EE4B26D
:109690000028ECD10348064A00210C3000F0E0F825
:1096A000F8BD00001C21002088B70100A5A801001A
:1096B0008DA70100BFF34F8F04490348C860BFF373
:1096C0004F8F00BFFDE700000400FA0500ED00E049
:1096D00070B50F4B05241D785E78AE4215D01D780D
:1096E0001C789E88B44201DA641C00E000241C70DF
:1096F0005C88DE686C43A41904609B68E800C418A9
:10970000A4880C80185800241060204670BD00000A
:1097100034210020F7B53B4C82B060880F4681426F
:109720006ED80020694608703849374E4868C00531
:10973000C00D18D0103840B2002807DA0207120F07
:10974000083A920892005118C96904E08108304A29
:109750008900891809688007C00EC1400806850F76
:10976000012D01D10AE00425684636DF02280CD01D
:10977000002803D000221146FFF79CFF2278607872
:10978000A188884203DA401C02E072B6F6E70020A6
:10979000C0B2904207D066786078884201DA401CF7
:1097A00000E000206070012D0BD062B668460078A2
:1097B00037DF022805D0002803D000221146FFF72A
:1097C00079FF1148864219D0A068F50004994151EB
:1097D000029900290CD0002F0AD060883A464643EF
:1097E000E0683018FEF77FFDA0682818878002E047
:1097F000002128188180002005B0F0BD0420FBE77F
:109800000920F9E734210020FFFF000000ED00E00F
:1098100000E400E00EB504E068468188029A0098F2
:10982000904702AA01A96846FFF752FF0028F3D02B
:109830000EBD000030B5CB0008339DB29307002465
:10984000002B01D0072030BD044B9A605219DA601A
:109850005C701C7058809980002030BD342100203D
:1098600070B5114CA568002D06D0002A06D000283E
:1098700004D00023247809E0082070BD072070BDC3
:1098800024265E43AE5D002E04D05B1CA342F7DBB2
:10989000042070BD242401265C432E556419617098
:1098A000A2610360002070BD4421002010B5044671
:1098B000082904D0002211461046FFF7FBFE21685C
:1098C0006068884710BD00001CB501910090034AF4
:1098D00008216846FFF71EFF1CBD0000AD9801007F
:1098E000FFB59807002481B01E4615460F46002894
:1098F0000BD1002E09D001F0F5FC22490A988861AD
:109900000F70324600208E6008E0072005B0F0BDE1
:1099100024234343D4549B181C75401CB842F7DBE6
:1099200024204743BB19032048700F461846CB60DC
:1099300019461830002218232E465E43D3005B18C8
:109940001C705C709D7058603018521C032AF5DB47
:109950000020C0433861BC70FC7001240A48240513
:10996000046003211420FFF7D7FB08480460084C6B
:109970000198A06003211120FFF7CEFB6068786199
:109980000020C3E74421002080E200E000E100E085
:1099900000150140FEB504461D48174682680D4675
:1099A000002A0CD001788C4201D2052D01D207206B
:1099B000FEBD214624235943535C012B01D00820CE
:1099C000FEBD8818407801281DD0002601F00AFE4F
:1099D000C0000F490190C9684018694601F02CFE8B
:1099E000002812D0012101700A49446049680830FA
:1099F000E2C007490198C96841180098487001F011
:109A000007FD0020FEBD2E46E0E70420FEBD00005D
:109A10004421002000150140F8B5144D0446A86803
:109A2000002809D029788C4201D30720F8BD2421D1
:109A30006143405C012801D00820F8BD01F0D2FD4F
:109A4000C600E8686946301801F0F6FD00280AD023
:109A5000022101704460E86831180098487001F0F4
:109A6000D7FC0020F8BD0420F8BD000044210020F0
:109A700070B50C4692B000216A461170072511712D
:109A8000002809D0C17849070CD502A9FFF7D0FCFE
:109A9000002808D102AE00E00026002C0ED0E078AD
:109AA000002802D0284612B070BD01AA0AA920469B
:109AB000FFF7BEFC0028F6D10AAA00E000226846A3
:109AC00003790178304672DFEDE70000F8B50D4606
:109AD00006991746040013D0002F11D04A480026DB
:109AE0004671C3600161202239464848FEF744FBB5
:109AF0004648C168002905D00169002902D002E06A
:109B00000E20F8BD06728169002902D0C1690029C2
:109B100000D1067500F094F83C4930310846103801
:109B200001602031816030215038FEF73BFC37481E
:109B3000217830380170A1788170E178C170617846
:109B400041706269216942610161E268A168C26095
:109B500081600146E369A269CB618A61616A00297B
:109B600017D00146A0310246AC3241628A60636A76
:109B70001B880B80616A436A898899800021436A47
:109B800004E0666AB668765C5654491C9E888E422C
:109B9000F7D8A16A00291CD01C4AA83211460C39FA
:109BA0008A608162A36A9B888B80A16A836A098824
:109BB00019800021836A04E0A66AB668765C565470
:109BC000491C9E888E42F7D82C210A5D0F49103916
:109BD0000A73216A002909D00B4914310162226AF3
:109BE00052884A80216A026A0988118061680029C6
:109BF00004D00549C91D4160616841600348294698
:109C00003038FFF735FFF8BDCC200020BC290020FC
:109C100010B5022801D003280ED1084C2078002866
:109C20000AD000202070607900F012F8002803D0DC
:109C30002169002900D0884710BD0000CC200020F9
:109C400010B507210148FEF7ADFB10BDE420002050
:109C5000F0B5624C87B06071002606A8069601F048
:109C60002DFB0127082806D0002878D10698002867
:109C700002D02770AFE00696FFF7E2FF584D6878F4
:109C8000002808D06079012816D1E168002906D0A3
:109C9000E770072088476079012802D00CE0E67061
:109CA00002E06878002805D04C48193001F0E2FA4B
:109CB000002801D102206071287A002804D160793F
:109CC000022801D103206071287D002804D1607929
:109CD000032801D166712671E16800290AD06079F4
:109CE000022801D0032805D12878002802D0607806
:109CF000002814D0A67018216846FEF753FB68466A
:109D00000670019606720396607901280BD0344FD5
:109D10000426203702280FD0032850D12EE0A77048
:109D200006208847E7E72D481830019068460770FD
:109D300046820682277145E0288A69464882A889BA
:109D400008822748203001F0EDFC002805D0287853
:109D5000002802D06078002802D002202EE03BE0EC
:109D60000220694608721E4803973038C6700021E9
:109D7000FFF77EFE00282FD1267120E0288B694650
:109D80000882A88B48821648203001F0CBFC0028BE
:109D900005D02878002802D06078002801D0032060
:109DA0000CE00220694608720D4803973038C670EF
:109DB0000021FFF75DFE00280ED10520207160799B
:109DC000002803D0684673DF002805D1E168002928
:109DD00001D020798847002007B0F0BDCC200020BA
:109DE000BC29002070B5054601461C220F48FEF72D
:109DF000C3F90F4C002626702968002907D00822D5
:109E0000A018FEF770FA204608307ADF02E0084812
:109E100008307BDF002808D1401E6080044866704F
:109E2000044A0021001DFFF71BFD70BD842A00209D
:109E3000EC20002081B50100F8B5224C02880027F3
:109E40001F4DE689102A16D029464968112A21D0CB
:109E5000122A2DD0502A1CD1C288801DB24218D19E
:109E6000028B022A15D1C27E837E10021843C007DE
:109E7000C00F0CD112E08188698001461048082289
:109E800016311030FEF72FFA6F70002E01D100F05E
:109E90004BFCF8BD0020C04368806F700846FFF798
:109EA000BBFD0028F5D0A1690029F2D08847F8BD94
:109EB000811D034808221030FEF715FAE7E700007D
:109EC000EC200020842A002010B5044601F00EF991
:109ED0002046FFF7B1FF2146014800F033F810BDDE
:109EE0005425002030B50446002085B0C043A08230
:109EF0000868124B0D46A0610FCB03936B4607C356
:109F000021461231684663DF002814D1A17C6846DF
:109F100081740B490182224604A90120A0DF002898
:109F200009D12946204600F0D1FA002803D129465C
:109F3000204600F04FFD05B030BD000034B70100F1
:109F4000231500000A88102A10D0112A10D0502A98
:109F500011D1CA884388891D9A420CD10A8B012AE3
:109F600009D18269002A06D0897E1047898801E0DC
:109F70000021C9438182704703B585B001216A463B
:109F80001182002200920192029203926A4691701D
:109F90004189118006A9039104A90291808A69462A
:109FA000A6DF07B000BD00001CB5002348221549FC
:109FB000082001F007FA002803D000221146FFF71D
:109FC00079FB00200090694601900870684660DFC8
:109FD000002803D000221146FFF76CFB0A4801F06D
:109FE000E7F9002803D000221146FFF763FB07487A
:109FF00001F000FA002803D000221146FFF75AFBB7
:10A000001CBD00005C240020C99E010009B40100B1
:10A01000F8B507460024224802E0641C042C19D23B
:10A02000A2008258BA42F8D1042C13D21D4E1E4D04
:10A03000F069002928D001290DD002290AD1600039
:10A04000201840194578002D04D0F168002901D06E
:10A0500028468847F8BD610062182946AD5C511852
:10A0600000914978002909D071680A2251430D4AAC
:10A07000521CFFF78FFC002800D177700098817880
:10A08000084810300155DEE7FFF7C6FC05486100BF
:10A09000611810304919005D8D78A842D3D0F8BD01
:10A0A00058B70100A820002080290020F8B501261B
:10A0B000B605264F264C05460D280ED00E2D24D071
:10A0C0000F2D3CD0102D3CD022A0FEF79DF8002291
:10A0D00011462846FFF7EEFAF8BD23A0FEF794F8E4
:10A0E000FE6001212548FFF747FF002822D0A0424B
:10A0F00020D008281ED000221146FFF7DBFA19E015
:10A10000012100E000210170F8BD1DA0FEF77CF8E0
:10A11000BE6000211948FFF72FFF00280AD0A04297
:10A1200008D0082806D000221146FFF7C3FA19A06C
:10A13000FEF76AF81D4801780029E3D1E0E71CA08A
:10A1400000E020A0FEF760F8F8BD00000005005018
:10A150000230000069646B20776861742068617068
:10A1600070656E65640A00004253505F4556454E67
:10A17000545F4B45595F30210A00000054250020F0
:10A180004253505F4556454E545F4B45595F312110
:10A190000A0000004253505F4556454E545F4B4500
:10A1A000595F31206661696C210A0000002000209F
:10A1B0004253505F4556454E545F4B45595F3221DF
:10A1C0000A0000004253505F4556454E545F4B45D0
:10A1D000595F33210A00000070B50023042811D212
:10A1E000440004190D4D012A02D101290DD000228D
:10A1F00046008019094E801900290CD0012906D08B
:10A20000022906D00723184670BD0D30C2B22A5568
:10A21000F9E74270F7E78270F5E700008029002037
:10A2200010B5054A0146127A0020D20702D008462E
:10A2300000F054F810BD0000A820002070B50E46B4
:10A24000204905464E608D600020CA60A9071ED5D2
:10A250000024012211462046FFF7BEFF641C042C97
:10A2600002D20028F5D012E0002810D17208042193
:10A270001548FFF7E3F9002809D1FFF7CDF90028C9
:10A2800005D11048114A00211C30FFF7E9FAE9070F
:10A2900006D00F220E4952058A600023CB608A61E6
:10A2A00000280DD107480B4A00211430FFF7D8FAD7
:10A2B000002805D10348084A01211830FFF7D0FAD9
:10A2C00070BD0000A820002068B7010071A5010042
:10A2D0000005005075AA0100D9950100FEB5784926
:10A2E00006464F684B690093BB00FB180020012213
:10A2F000019352050546734C3300FFF729F8180DFA
:10A3000013133749596C828E858E97A1A5A5A5A5F3
:10A31000A5C3C8CDD4DADA120B225205A260E560DB
:10A320000D70FEBD05208005A060E56060680F230C
:10A330005B055840800209D5A260E560022E02D17B
:10A34000E120C0000AE07D20400107E0E260A56056
:10A35000022E01D1C82001E0FF2091300E7064214F
:10A36000FEF766F878430022014646E005208005A6
:10A37000A060E56060680F235B055840800204D54B
:10A38000A260E56019204001E8E7E260A560E1E72E
:10A3900005208005A060E56060680F235B055840DC
:10A3A000800202D5A260E560CDE7E260A560D3E758
:10A3B00005208005A060E56060680F235B055840BC
:10A3C000800202D5A260E56001E0E260A5600E7047
:10A3D0007900002211E005208005A060E56060683A
:10A3E0000F235B055840800202D5A260E56001E0C2
:10A3F000E260A5600E70002239460098FFF7CAFAA5
:10A40000FEBD05239B0544E06068012189050A46DD
:10A410008243A2600840E06010E06168012080058E
:10A4200002468A43A2600140E160E4E761680120DE
:10A43000800502468A43A2600140E1600199C8E7B5
:10A440000F214905E1601BE00F468869FFF7E4FA38
:10A4500011218A1B1C4E01D0002802D0A660E560A5
:10A46000FEBD012A0BD91046C82148436421FDF7DF
:10A47000DFFF796800224143B869FFF78BFAE66095
:10A48000A560FEBD0F225205A260E56015E007231E
:10A490009B05A360E5600EE00D225205A260E56019
:10A4A0000122920507E00322D205A260E560921026
:10A4B00001E00F225205E260A5600E70FEBD0000B3
:10A4C000A8200020000500500000800070B5002486
:10A4D0000546601C90B00007000F08A910300894D2
:10A4E0000870601C0007000F103048708878F9264B
:10A4F0003040801C88701C2101A8FDF753FF69467D
:10A5000008791221084369460871029408A8049446
:10A51000059407940690A87C08A988711348694699
:10A52000888411200094087048708878F7213040A2
:10A53000801C0840EF2108404008400069468870B0
:10A5400014210AA8FDF72EFF09A80A9068460B906F
:10A550000120694608864C8688860E942B462888FA
:10A560000A330AAA01A9A2DF10B070BD24150000A9
:10A5700010B500780221FFF74BFD10BD0549002200
:10A580008300D2435B185A60042802D30818403075
:10A5900002717047A02A0020F0B50025ED43002A83
:10A5A00002D00023042601E0042309260C4C05E018
:10A5B0009F003F197F687F1C04D05B1CB342F7D318
:10A5C0002846F0BD26185DB2203635729E00361939
:10A5D0007160002AF4D1E11840310871F0E7000001
:10A5E000A02A0020024909182820085670470000B8
:10A5F000A02A0020F8B5224801694A1C3DD0242237
:10A600005143826889184E681E494C684769007931
:10A61000E11B0D022D0AED1C002814D101201A4A5D
:10A6200000045060184A403A5060184940000860E1
:10A63000174908601749012008602F20FDF78CFD9D
:10A640000F4901200871B54200D23546E8190002D1
:10A650000C49000A403108600A494968001B091B7F
:10A660000902090A0002000AC91C814204D901201A
:10A670000649400480390860F8BD00F033FEF8BD9B
:10A6800044210020001501404013014080E200E019
:10A6900000E100E000100140F8B50D4611780646D3
:10A6A000881D14461F2801D90C20F8BD33880720C7
:10A6B000062BFAD31927FF01BB4202D9164A93424F
:10A6C000F3D17288062AF0D3BA4202D9124FBA42A5
:10A6D000EBD1114FBB4203D0BA4201D09342E4D830
:10A6E000481C052220706A5420781222411C2170D7
:10A6F0002A5420784119308800F03CFF2178401816
:10A70000C0B220704119708800F034FF21784018E1
:10A7100020700020F8BD0000FFFF000010B50022EF
:10A720001146FEF7C7FF10BDF8B5164800F020F936
:10A73000144D0026103D144C002807D061690029F3
:10A740001BD001206A461070684615E02878002862
:10A7500005D06169002910D0684606700CE0687861
:10A7600000280CD0A16800226868FFF713F90028C0
:10A7700003D0A169002900D088472E70F8BD616818
:10A78000F1E70000FC200020842A0020F8B5002614
:10A790000124154D23E06968F000471838782146F8
:10A7A0006A698140114218D08A436A6100F030FC26
:10A7B0003A7821462B6991401940034693409942CB
:10A7C0000BD17978012901D0012100E000217B68BB
:10A7D0004140002B01D010469847761CF6B22878ED
:10A7E0008642D8D3F8BD00001C21002010B50E49C8
:10A7F00000238A78CC78A24212D0521CD2B28A703E
:10A80000022A00D18B708A78074B92001C339A5829
:10A810000260486910180002000A4861012010BD5A
:10A820000360002010BD000044210020F7B5144C47
:10A830000025A76823691EE024215943C9194E68E1
:10A84000864202D9301A486017E0801B751900262D
:10A850004E600E750E699C460B6AB646002E0AD0F5
:10A86000019E76193602360A8E607646CE601668EC
:10A870000E6261461160591CDED12361FEBD0000ED
:10A880004421002010B58A68002A02DCFDF796FEFC
:10A8900010BD521E8A604A68C0B2531C4B601070D3
:10A8A00010BD000070B50646104C0125B540E068AB
:10A8B000FFF7B2F800280CD16169294207D1304670
:10A8C00000F0A6FB0028206904D0284303E0A94338
:10A8D000616170BDA8432061606900222843606106
:10A8E000A168E068FFF756F870BD00001C21002049
:10A8F000F8B51E4C2078002837D02069002807D0F2
:10A900000026E068002805D00025002E04D013E0C2
:10A910000126F6E70125F8E7684651DF052806D04D
:10A92000002806D000221146FEF7C4FE04E00126EE
:10A9300002E0216900988847002D12D1608869469D
:10A940000880A06861DF052806D0002806D0002214
:10A950001146FEF7AFFE04E0012502E0E168A068C1
:10A960008847002ED8D0002DCFD0F8BD6821002018
:10A97000418805480288914204D34088814201D829
:10A980000120704700207047F42000201048018CFF
:10A99000C9B2012917D1818C090714D1018D09068B
:10A9A0000A0F03D1828D1206120F0ED0090F012952
:10A9B00003D1828D1206120F07D0032903D1808D97
:10A9C0000006000F01D000207047012070470000F2
:10A9D000C00F00F030B58FB005461C216846FDF76A
:10A9E000E1FC694608780A2108436946087000249A
:10A9F00001940394049405940694A87C08A9887093
:10AA0000154869460884601C0007000F1030079441
:10AA1000087711204877887FF9210840F721801CAA
:10AA20000840EF210840400840006946887714211B
:10AA300009A8FDF7B7FC08A8099007A80A9001200B
:10AA400069468885CC8508860D942888AB1C09AAA0
:10AA5000A2DF0FB030BD00002515000001208005E9
:10AA6000034A002901D090607047D0607047000011
:10AA70000005005010B50448017AC90702D00078DB
:10AA8000FFF72CFC10BD0000A8200020F8B52348DB
:10AA900001690091457833E02048E900C0680E184C
:10AAA00034782AE0182060437168641C0818B17873
:10AAB000E4B2A14200D100240178022902D0032986
:10AAC0001BD113E0154A40682421926841438F1836
:10AAD000397D002911D000F0D5FC002038750CE03C
:10AAE00024277843C0180275006A03E00B4900224E
:10AAF0008B680869471CF3D108617078A042D1D1F6
:10AB000028466D1EEDB20028C6D1044801690098A0
:10AB1000814201D00120F8BD0020F8BD4421002071
:10AB2000F8B50446384800270169009146785CE092
:10AB30003548F100C2688D1851E0601C07D0324AD8
:10AB400024209268604321468018046A24E0287813
:10AB5000182141436A68401CC0B252182870A97875
:10AB6000884200D12F70284B516824209B684843AD
:10AB7000C0181378012B34D1037D002B31D1936899
:10AB80008360D368C360136903615269C2611E4A5E
:10AB90005279002A00D087601B4B82685B69964619
:10ABA0009C46D31A1A02194B120A9A4202D2C3685F
:10ABB000D21808E0724663469A1A1202C368120A53
:10ABC000934202D99A1A426000E0476087600122EE
:10ABD000C7600275921E0262084600F021FC601CEC
:10ABE000ABD1287869788842A7D13046761EF6B274
:10ABF00000289DD1044801690098814201D00120BC
:10AC0000F8BD0020F8BD000044210020FFFF7F00B8
:10AC100088B0484805220090474B11460020FEF7B7
:10AC20005FFE002803D000221146FEF743FDFFF728
:10AC3000BBF9424A42490320FFF700FB002803D03A
:10AC400000221146FEF736FD3E4A0A210820FEF793
:10AC5000F1FD002803D000221146FEF72BFD112044
:10AC600069460872102238A102A87CDF002803D0B0
:10AC700000221146FEF71EFD0024FF2091300094B3
:10AC800069460194088042004A808C80C8806846EA
:10AC90007ADF002803D000221146FEF70BFDFEF7F5
:10ACA0006DFC2E48009027486946B030FFF71AF92E
:10ACB000002803D000221146FEF7FCFCFEF75EFCE4
:10ACC0001C216846FDF76EFB0520C00301900F2094
:10ACD000000402900094032168460173C481047447
:10ACE0001F4805901F4806906846FFF77BF800282C
:10ACF00003D000221146FEF7DDFC1B490122087833
:10AD00001043E1221040DF220C3010400870072071
:10AD10004870102088700220FEF79AFF02E0FEF7CC
:10AD200079FD48DF0028FAD000221146FEF7C2FC68
:10AD3000F5E70000C998010088210020ADA00100BE
:10AD4000CD0C0000A4240020427574746F6E735FF4
:10AD500054656D706C617465000000005DAA0100AF
:10AD6000D1B101001DA701000820002070B50546E3
:10AD700000790E46801C1446C0B21178821C8A18D5
:10AD80001F2A01D90C2070BD0A46491C2170401CA5
:10AD9000B0542078FF22411C217032542078811950
:10ADA000288800F0E7FB21784018C0B22070AA88FC
:10ADB000002A09D0A968002908D08019FDF793FA64
:10ADC0002078297940182070002070BD072070BDC0
:10ADD000F8B514780746A01C15460E461F2803D860
:10ADE0007878801C1F2801D90C20F8BD1D20001B7D
:10ADF00080B26946864608803019801C7DDF0028B5
:10AE0000F3D13878022805D168460088704501D80A
:10AE1000092107E078780821002801D0704501D980
:10AE200068460088421C3255641CE2B2B15429784D
:10AE3000801C081828700020F8BD00008207D30E7F
:10AE4000FF229A408907090E10B5994000280BDAB5
:10AE500003071B0F083B9C080C4BA400E318DC699C
:10AE600094430C43DC6107E08408094BA400E41818
:10AE7000236893430B432360C106C90E0120884019
:10AE8000044908600449086010BD000000ED00E0BE
:10AE900000E400E080E200E000E100E010B50446DC
:10AEA00000F0F4F9002808D00E48A1000A18106834
:10AEB000022188430843106010BD204600F0F2F9DB
:10AEC0000028F9D02046FFF78DFB07498200511872
:10AED0000A69520852000A610121814003488160D9
:10AEE00010BD0000000700500065004000630040F6
:10AEF00070B50D46064600F0C9F901240028304619
:10AF000018D0FFF76FFB1849001F08184030007A6F
:10AF10008009032802D0012805D006E01348006903
:10AF2000B440204201D1022100E00321304600F06C
:10AF3000A9F870BD00F0B6F90028FAD03046FFF746
:10AF400051FB8100CA1D0A4BF932C9180B6992B234
:10AF500023430B610749511800220A60002DE8D0F5
:10AF600084400548446070BDA02A002000050050C0
:10AF7000006500400060004000630040F8B5204FCD
:10AF80000D4604463819282141560026C817134695
:10AF9000401C01D0082630E0EA7819462046FFF729
:10AFA000FBFA411C28D0174BAA78A100C918002A27
:10AFB00003D00A6802239A4301E06A7892000A608B
:10AFC000E978002910D082000F482978101802690A
:10AFD0000E4B1A400261E206D20C8907890B0A4324
:10AFE00001690A43026108E0381840302A78017983
:10AFF00092011143017100E004263046F8BD0000C3
:10B00000A02A00200007005000650040FFE0FCFF80
:10B0100003490969C140C807C00F00D0012070472B
:10B020000005005070B5114D2878002801D0082087
:10B0300070BD0020411E2A182032401CC0B211727F
:10B040002028F8D300242046FFF798FA641CE4B2C5
:10B05000092CF8D301210620FFF7F0FE0120044956
:10B06000C007486001202870002070BDA02A002081
:10B070000063004002480078002800D0012070479B
:10B08000A02A0020820006481018026803231B042F
:10B090009A430260026809040A4302607047000094
:10B0A00000070050034940180068012800D0002024
:10B0B000704700000060004010B5002809D0022849
:10B0C00006D1FFF7ADF80EE000221146FEF7F2FAC6
:10B0D00010BD0020FFF7A4F8002803D0002211467D
:10B0E000FEF7E8FA3CDF0028EED110BD70B5354D13
:10B0F000044601886888142941D00CDC102913D03B
:10B10000112924D0132921D12B4614331A460C3A85
:10B1100000217FDF29E017292AD0522916D10323E5
:10B1200000221146A9DF20E00720FFF779F8002868
:10B1300003D000221146FEF7BDFAA0886880FEF712
:10B140006BFA12E000221146FEF7B4FA70BD01203E
:10B150001D49C005C8600020C0436880FEF748FA5A
:10B160000028F3D10220FEF773FD0028EAD170BD5C
:10B1700014480622A11D0D30FDF7B5F870BD20461C
:10B180000A2212490E30FDF781F8002817D000205E
:10B190000C490D310B791946014001D00B49123988
:10B1A0009A07D20F024001D0084A0A325B07DB0F30
:10B1B000034001D0054B2133688882DFD5E70120A9
:10B1C000E6E7000000200020000500502A240020AF
:10B1D00010B50078002809D105483B21408876DF6A
:10B1E000002803D000221146FEF764FA10BD0000CB
:10B1F0000020002070B5022401221B4D1B4E1C496B
:10B200000300FEF7A5F805040C2619200B0048786A
:10B21000012818D0022801D10320487070BD487859
:10B22000002802D00328F9D104E00420286032600D
:10B230004A7070BD4C7070BD4878012806D0022855
:10B2400004D00328F7D1FEF7E3F870BDFEF7CEF87F
:10B2500070BD48780128FBD14878022800D0B26040
:10B260008878E861E6E70000002500400020004003
:10B27000042100200021425C002A01D001207047F7
:10B28000491C0629F7D3002070470000044908181C
:10B2900028214156042901DB012070470020704716
:10B2A000A02A00200449081828214156042901D267
:10B2B0000120704700207047A02A00200749097824
:10B2C000002906D0002806D00549497801600020F1
:10B2D0007047082070470E207047000010210020A2
:10B2E000F02A002070B501240B49600408600B4966
:10B2F00040108860094940398860094D6C602F20F2
:10B30000FCF72AFFAC60074D00242F206C61FCF78E
:10B3100023FF2C7170BD000080E100E0401301406C
:10B320000010014044210020F7B582B00298144675
:10B33000806A0F46002833D0029800252030009004
:10B3400028E00298816A0C2068430E182178307931
:10B350004A1C2270C01C785420781622411C21708F
:10B360003A542078C119308800F004F92178401847
:10B37000C0B22070B288002A09D0B16800290FD06D
:10B38000C019FCF7B0FF20783179401820706D1C8F
:10B390000098EDB2007BA842D3D8002005B0F0BDE4
:10B3A0000720FBE710B508461146C046C04610BD51
:10B3B000002803D00249C860002070470E20704763
:10B3C0006821002070B5002901D08C0701D007202A
:10B3D00070BD064C0125A16062800549636010DFE5
:10B3E0000028F5D1257016202EDF70BD68210020C1
:10B3F000A5B30100002803D002490861002070476E
:10B400000E2070476821002010B5FEF701FC10BD2A
:10B4100001200249000508607047000000E200E0DA
:10B42000F0B5174F2421BC6841430D1939694A1CF6
:10B4300009D024224A4316196B687268934204D8D3
:10B44000D21A726029623861F0BD0A4602E00A46EB
:10B45000396A9B1B4E1C0BD024264E4337197E683D
:10B460009E42F4D324264E4336197768FF1A77603C
:10B470006B60296224214A4311190862F0BD000063
:10B480004421002070B5194C2269A5681346114665
:10B4900006E0814207D00A46242671434919096A09
:10B4A0004E1CF6D170BD002EFCD08A420CD1242057
:10B4B00043435819006A2061401C05D10C4B012000
:10B4C000986000236361607124204143481924235C
:10B4D00041685A43006A52191062421CE2D0242289
:10B4E0005043401942685118416070BD442100200A
:10B4F00000100140F8B51D4C2569681C35D01C486A
:10B50000002640686169401A07023F0A19E02420BA
:10B510004543A0682A185068B84214D8A3693F1A56
:10B520008619156A002B09D0D169906998470028BF
:10B5300007D000221146FEF7BDF802E09169D069FC
:10B540008847681CE3D1A178E078814206D1401C8D
:10B55000C0B2E070022801D10020E070034900066B
:10B56000800D1C310E50FFF753FFF8BD4421002021
:10B57000001501400870000A487002207047000062
:10B5800038B51549154A488890420FD04A78144C6E
:10B59000521CD2B24A70237B934208D3083175DF24
:10B5A000002803D0A169002900D0884738BD0025B4
:10B5B0004D70217C002907D03B2176DF002803D085
:10B5C000A169002900D0884761690029EED068464A
:10B5D0000570884738BD0000EC200020FFFF000008
:10B5E000842A002012494868C005C00D19D01038BF
:10B5F00040B2002807DA0207120F083A92089200B8
:10B600005118C96904E081080A4A89008918096843
:10B610008007C00EC1400806800F012803D0032810
:10B6200003D00220704700207047012070470000BF
:10B6300000ED00E000E400E042788378521C934281
:10B6400000D100220378934201D1002070470A60A4
:10B65000416840781822504308187047F8B51546DD
:10B66000069C1E4607460222009400F00AF80028B5
:10B6700006D13346102229463846009400F001F8DE
:10B68000F8BDFFB583B0074600200C9C864626789F
:10B6900005463AE07868A90041180A886846828021
:10B6A0004988C1800022694601A865DF002810D1C1
:10B6B000684601780598814226D17046002801D05D
:10B6C000002200E002222078891841181F2902D99F
:10B6D0000C2007B0F0BD7146002908D1401CC0B253
:10B6E000411C069B049A21701A5401208646217839
:10B6F00006980A18694601A865DF0028E9D169465D
:10B7000020780978401820706D1C3888A842C1DC68
:10B710007046002804D020780699801B401E88556A
:10B720000020D6E70179002902D1007B002800D053
:10B7300001207047D2ADF86DC43C42FF9D448A3E63
:10B74000FD29B2FF535444494E005354444F5554BD
:10B7500000535444455252001100000012000000F2
:10B7600013000000140000001100030011A00100EC
:10B770001200030011A001001300030011A001003A
:10B780001400030011A00100030000005465726D55
:10B79000696E616C00000000B8B701000020002055
:10B7A00088010000AC8F0100FCB701008821002057
:10B7B000401D0000048101001201D6FFFF23150186
:10B7C0001318241B2034041A4B040110600B53453A
:10B7D00047474552205254545A0204148CB7011B57
:10B7E0007025300226043930122903482010932492
:0CB7F000F4032EFFFF29FE092E34015047
:04000005000180C1B5
:00000001FF
